:020000040800F2
:10000000700D002075040008DD010008DF01000804
:10001000E3010008E7010008EB0100080000000010
:10002000000000000000000000000000EF010008D8
:10003000F101000800000000F3010008F5010008CC
:100040008F0400088F0400088F0400088F04000844
:100050008F0400088F0400088F0400088F04000834
:100060008F0400088F0400088F0400088F04000824
:100070008F0400088F0400088F0400088F04000814
:100080008F0400088F0400088F0400088F04000804
:100090008F0400088F0400088F0400088F040008F4
:1000A0008F0400088F0400088F0400088F040008E4
:1000B0008D3500084B320008753500088F040008A4
:1000C0008F0400088F0400088F0400088F040008C4
:1000D0008F0400088F0400088F0400087B3B000891
:1000E0006B4A00088F0400088F04000800F002F833
:1000F00000F05FF80AA090E8000C82448344AAF163
:100100000107DA4501D100F054F8AFF2090EBAE860
:100110000F0013F0010F18BFFB1A43F0010318473B
:1001200090CF0000B0CF00000A444FF0000C10F850
:10013000013B13F0070408BF10F8014B1D1108BF65
:1001400010F8015B641E05D010F8016B641E01F805
:10015000016BF9D113F0080F1EBF10F8014BAD1C55
:100160000C1B09D16D1E58BF01F801CBFAD505E073
:1001700014F8016B01F8016B6D1EF9D59142D6D3CD
:10018000704700000023002400250026103A28BFF5
:1001900078C1FBD8520728BF30C148BF0B607047F9
:1001A000642908F09986002070471FB51FBD10B55F
:1001B00010BD09F061F81146FFF7F7FF00F00CF9E8
:1001C00009F07FF803B4FFF7F2FF03BC02F0B8FBBD
:1001D00030BF72B662B680F308887047704700BFC0
:1001E000FEE700BFFEE700BFFEE700BFFEE7704787
:1001F00070477047704700000CB5002001900090D8
:100200006C48006840F480306A49086000BF694863
:10021000006800F4003000900198401C01900098A4
:1002200018B90198B0F5A06FF1D16248006800F4E8
:10023000003010B10120009001E0002000900098F3
:10024000012843D15C48006840F010005A4908601A
:100250000846006820F0030008600846006840F087
:1002600002000860534840685249486008464068A8
:1002700048600846406840F480604860084640682E
:1002800020F47C1048600846406840F4E81048605C
:100290000846006840F08070086000BF454800686C
:1002A00000F000700028F9D04248406820F00300B8
:1002B000404948600846406840F00200486000BF7E
:1002C0003C48406800F00C000828F9D10CBD10B57E
:1002D000FFF792FF10BD10B53648006840F00100EE
:1002E000344908600846406834490840314948604C
:1002F00008460068324908402E49086008460068F0
:1003000020F4802008600846406820F4FE00486021
:100310004FF41F008860FFF7DAFF4FF000602949B3
:10032000086010BD10B5002100200022214B5B6841
:1003300003F00C0121B1042906D0082928D107E0D7
:10034000214B224C236027E01F4B204C236023E0ED
:10035000184B5B6803F47010164B5B6803F4803233
:10036000022303EB904022B9194B4343174C2360FF
:100370000DE0104B5B6803F4003323B1144B43438F
:10038000124C236003E0104B4343104C236003E006
:100390000D4B0E4C236000BF00BF064B5B68C3F3E0
:1003A00003130C4CE15C094B1B68CB40074C2360EA
:1003B00010BD000000100240002002400000FFF8C5
:1003C000FFFFF6FE08ED00E000127A0000000020BA
:1003D00000093D0004000020022002F059F902F05B
:1003E000E7F8022002F03EFA012002F03BFA02F0A8
:1003F0000BFB02F039FB002141F61F4002F0A6FF83
:100400004FF4E13002F0BAFA4FF4165003F066FBF5
:1004100002F0F4FF03F03FF802F006FE03F0CAF822
:1004200002F04DFD08F05EFA08F070FA47214FF631
:10043000FF7002F085FE03F069FD14E00A480078C1
:1004400020B904F09FFD04F00BFC01E004F095FEE0
:1004500001200649087000200549087000BF0348C4
:1004600000780028FBD1E9E71B0000203D000020B8
:100470003C0000200948804709480047FEE7FEE7A6
:10048000FEE7FEE7FEE7FEE7FEE7FEE7FEE7FEE744
:1004900004480549054A064B70470000D70200088A
:1004A000ED00000870070020700D0020700900208A
:1004B0007009002031490143314A1160704770B51D
:1004C000002100230F22C47804B32D4C246804F4C7
:1004D000E064C4F5E064210AC1F10403CA40447831
:1004E00004FA03F18478144021430901254C06786D
:1004F000A155047804F01F050124AC4005786D1166
:10050000AD0005F1E025C5F8004109E0047804F0EC
:100510001F050124AC401C4D0678761145F8264095
:1005200070BD1A4A0A400243154B1B1F1A607047E0
:1005300039B1134A121D12680243114B1B1D1A6078
:1005400006E00F4A121D126882430D4B1B1D1A60F4
:100550007047042808D14FF0E021096941F00401F7
:100560004FF0E022116107E04FF0E021096921F02E
:1005700004014FF0E0221161704700000000FA050D
:100580000CED00E000E400E080E100E080FFFF1FF0
:1005900010B50446FA48844208D10121401500F004
:1005A000ABFE0021601500F0A7FE17E0F54884427D
:1005B00008D10121001500F09FFE0021201500F058
:1005C0009BFE0BE0F048844208D10121C80300F0F3
:1005D00093FE00214FF4004000F08EFE10BD30B5B8
:1005E0000246002000235068E84C20400D790C683A
:1005F00044EA0524204350609068E54C2040D1E94E
:1006000002542C434D7944EA450420439060D06A5B
:1006100020F470000C7C641EE4B2234340EA0350D3
:10062000D06230BD00210160017141718160C16003
:1006300001210174704721B1826842F00102826099
:1006400003E0826822F001028260704721B1826873
:1006500042F48072826003E0826822F480728260D9
:10066000704710B50023CBB21AB144681C434460F4
:1006700002E044689C43446010BD816841F0080179
:1006800081607047014600208A6802F008020AB1C2
:10069000012000E000207047816841F00401816082
:1006A0007047014600208A6802F004020AB1012066
:1006B00000E00020704721B1826842F4A00282600D
:1006C00003E0826822F4A0028260704701460020A5
:1006D0008A6802F480020AB1012000E0002070471D
:1006E00010B50A4600210023416821F46041531EE1
:1006F00041EA4331416010BD21B1426842F40062D9
:10070000426003E0426822F4006242607047F0B544
:1007100004460D4600200021092D11DDE068A5F1F9
:100720000A0606EB4607072606FA07F18843A5F1F5
:100730000A0606EB460603FA06F10843E0600CE001
:10074000206905EB4507072606FA07F1884305EB04
:10075000450603FA06F108432061072A0FDA606BA9
:10076000561E06EB86071F2606FA07F18843561E1B
:1007700006EB860605FA06F10843606322E00D2ABF
:100780000FDA206BD61F06EB86071F2606FA07F145
:100790008843D61F06EB860605FA06F10843206358
:1007A00010E0E06AA2F10D0606EB86071F2606FAA6
:1007B00007F18843A2F10D0606EB860605FA06F15D
:1007C0000843E062F0BD21B1826842F48012826089
:1007D00003E0826822F48012826070470146C86C90
:1007E00080B2704766484C300068704721B142685B
:1007F00042F48062426003E0426822F48062426018
:10080000704721B1426842F48052426003E042687E
:1008100022F48052426070470A460021816821F428
:10082000E04111438160704721B1826842F4004287
:10083000826003E0826822F400428260704721B146
:10084000826842F40212826003E0826822F402129B
:1008500082607047014600208A6802F400120AB1E3
:10086000012000E000207047F0B504461546002046
:1008700000220026092911DDE068A1F10A0707EB33
:10088000470C072707FA0CF29043A1F10A0707EB80
:10089000470703FA07F21043E0600CE0206901EB20
:1008A000410C072707FA0CF2904301EB410703FACA
:1008B00007F210432061A06BC0F30156EF1C06F154
:1008C000010CA7EB0C0707EB870C1F2707FA0CF2AC
:1008D0009043EF1C06F1010CA7EB0C0707EB870711
:1008E00001FA07F21043A063F0BD10B50A460021DB
:1008F0000023816B21F44011531E41EA03518163AF
:1009000010BD08B5002300930090009B0B4400939A
:10091000009B1A6008BD08B50246002000900092B6
:1009200001F12800009B184400900098006880B2F4
:1009300008BD0A4600214168164B19401143416029
:1009400070474162826270470A460021416821F087
:100950001F0111434160704740B1094908310968DE
:1009600041F40001064A0832116007E004490831E9
:10097000096821F40001024A083211607047000042
:100980000024014000280140003C0140FFFEF0FF30
:10099000FDF7F1FFFFFD3FFF0246002013680B400B
:1009A0000BB1012000E000207047CA43026070478D
:1009B00070B502460020002300240B125568CEB209
:1009C00005EA060415681D4015B10CB1012000E0D0
:1009D000002070BD00220A12D3430360704700005C
:1009E00010B5012000F0A2FC002000F09FFC10BD1B
:1009F0002A49086070472949091F0860704727493C
:100A000084310860704701460020254A10884FF65F
:100A10007F4210400843224A108070470146002060
:100A20001F4A10884FF68072104008431C4A1080FD
:100A3000704708B500220092194A2C3A0092009A99
:100A400002440092009A116008BD08B501460020DA
:100A5000009013482C3800900098084400900098AB
:100A6000008808BD0D489C300068C0B270470C4833
:100A70000830008840F001000949083108807047BB
:100A80000648A0300068C0B27047054808300088AA
:100A900040F00200024908310880704704860D4288
:100AA0002C6C0040002044490860091D0860091DA5
:100AB0000860091D086041483F49143108607047CB
:100AC00000213D498279002A3AD00A46126803681B
:100AD0009A430B461A600A1D126803689A430B1D5D
:100AE0001A60027911440A6803681A430A60324A9C
:100AF0000832126803689A432F4B08331A601A1D94
:100B0000126803689A432C4B0C331A604279102AFE
:100B10000ED11A1F126803681A43274B08331A6054
:100B20001A1D126803681A43234B0C331A600DE038
:100B30002149427911440A6803681A430A6005E0B2
:100B4000027911440A6803689A430A6070470021D9
:100B5000016001710C2141710021817170471649BA
:100B6000103109680143144A103211607047014680
:100B70000020114A143212680A400AB1012000E034
:100B8000002070470C49143108607047014600206E
:100B90000022094B1B6803EA0102074B14331B6850
:100BA0000B4013B10AB1012000E000207047024958
:100BB000143108607047000000040140FFFF0F007F
:100BC00010B50446CC48844208D10121042000F02D
:100BD00093FB0021042000F08FFB46E0C7488442CD
:100BE00008D10121082000F087FB0021082000F037
:100BF00083FB3AE0C248844208D10121102000F072
:100C00007BFB0021102000F077FB2EE0BD488442E2
:100C100008D10121202000F06FFB0021202000F0EE
:100C20006BFB22E0B848844208D10121402000F04B
:100C300063FB0021402000F05FFB16E0B3488442D4
:100C400008D10121802000F057FB0021802000F016
:100C500053FB0AE0AE48844207D10121801500F021
:100C60004BFB0021A01500F047FB10BD10B5012182
:100C7000084600F041FB0021012000F03DFB10BDC3
:100C80002DE9F04102460025002600200023002423
:100C9000002791F803C00CF00F0591F803C00CF089
:100CA000100CBCF1000F03D091F802C04CEA05050E
:100CB00091F800C0BCF1000F31D0146800202BE087
:100CC0004FF0010C0CFA00F3B1F800C00CEA030677
:100CD0009E4220D183004FF00F0C0CFA03F7BC4367
:100CE00005FA03FC4CEA040491F803C0BCF1280F98
:100CF00006D14FF0010C0CFA00FCC2F814C00AE057
:100D000091F803C0BCF1480F05D14FF0010C0CFA6B
:100D100000FCC2F810C0401C0828D1D31460B1F800
:100D200000C0BCF1FF0F34DD546800202EE000F15C
:100D3000080C4FF0010808FA0CF3B1F800C00CEAF7
:100D400003069E4221D183004FF00F0C0CFA03F7EB
:100D5000BC4305FA03FC4CEA040491F803C0BCF15F
:100D6000280F05D100F1080C08FA0CF8C2F814801D
:100D700091F803C0BCF1480F07D100F1080C4FF007
:100D8000010808FA0CF8C2F81080401C0828CED3DD
:100D90005460BDE8F0814FF6FF710180022181703F
:100DA0000421C17070470246002093680B400BB1CC
:100DB000012000E0002070470146886880B270473B
:100DC00002460020D3680B400BB1012000E0002058
:100DD00070470146C86880B2704701617047416141
:100DE00070470AB1016100E041617047C16070471E
:100DF0004FF480320A438261816182618269826933
:100E0000704702460020434B18684FF68073184025
:100E100040EA021008433F4B186070473E49C861E2
:100E20007047F0B50A46002300240021002500F099
:100E30000046B6F1004F02D1364EF16901E0354E61
:100E40007168C0F3034583B200F44016B6F5401F45
:100E500008D121F070612F4E766826F070662D4F14
:100E60007E6012E000F48016B6F5801F06D10326DE
:100E700006FA05F4A14341F0706106E0460D360123
:100E800003FA06F6B14341F0706122B1460D360116
:100E900003FA06F6314300F00046B6F1004F02D1E6
:100EA0001C4EF16101E01B4E7160F0BD30B50022B7
:100EB0008B071C0F0F2303FA04F2164B08338C1018
:100EC00053F824309343134C08348D1044F82530E4
:100ED00023468C1053F824308C07240F00FA04F4B6
:100EE00023430C4C08348D1044F8253030BD0A499A
:100EF000DC3108607047000000080140000C014030
:100F0000001001400014014000180140001C014085
:100F100000200140000001400000204210B50121E6
:100F2000080700F0F6F900214FF0805000F0F1F9C9
:100F300010BD2A4908627047284908617047014678
:100F40000020274A106820F0E00008431060704736
:100F50002249A0310860704710B502460020204B9E
:100F6000186820F00300104318601E4B1B6843F004
:100F700004031C4C2360012901D130BF00E020BFD5
:100F8000184B1B6823F00403164C236010BD144853
:100F9000006840F00400124908600846006840F00C
:100FA000020008600F48006840F004000D49086026
:100FB00000BF00BF30BF704701460020084A52689A
:100FC0000A400AB1012000E0002070470449096886
:100FD00041EA8001024A11607047000000000E42A1
:100FE0000070004010ED00E0DF48006840F00100B4
:100FF000DD49086008464068DC490840DA49486035
:1010000008460068DA490840D74908600846006881
:1010100020F4802008600846406820F4FE00486004
:101020004FF41F0088607047CF49096821F4803170
:10103000CD4A11601146096821F480211160B0F594
:10104000803F03D0B0F5802F0ED106E0C649096875
:1010500041F48031C44A116007E0C349096841F492
:10106000A021C14A116000E000BF00BF704710B569
:1010700001460022002300204A11012A02D1BA4C65
:10108000236806E0022A02D1B74C236A01E0B64C7D
:10109000636A01F01F02012494401C400CB101203E
:1010A00000E0002010BD38B500200090002400258D
:1010B00000BF3120FFF7DBFF05460098401C009081
:1010C0000098B0F5A06F01D0002DF2D03120FFF7CD
:1010D000CEFF08B1012400E00024204638BD0146BF
:1010E0000020A14A106820F0F80040EAC10010601A
:1010F0007047A04908607047024600209A4B586824
:1011000020F47C1042EA01031843974B5860704763
:1011100098490866704701460020934A506820F0BD
:1011200003000843506070478F48406800F00C008F
:101130007047014600208C4A506820F0F0000843B8
:101140005060704701460020874A506820F4E060F4
:1011500008435060704701460020834A506820F4DD
:10116000605040EAC1005060704729B17E4A527A0F
:1011700002437D4B5A7204E07B4A527A82437A4B97
:101180005A7270477B49D831086070470146002089
:10119000754A506820F44040084350607047002171
:1011A000714A20321170704A82F82010012802D052
:1011B00004280AD104E001216B4A2032117005E0B5
:1011C0000521694A2032117000E000BF00BF70475E
:1011D0006949086070476449096A0143624A1162BB
:1011E0007047654944390860704730B500210022D6
:1011F000002400235C4D6D6805F00C0121B1042929
:1012000005D0082923D105E05C4D056022E05B4D47
:1012100005601FE0544D6D6805F47012524D6D6805
:1012200005F48034022505EB92421CB9544D554318
:1012300005600BE04C4D6D6805F400351DB1504D57
:101240005543056002E04D4D5543056002E04B4DAE
:10125000056000BF00BF444D6D6805F0F00109094D
:10126000484D6B5C0568DD4045603F4D6D6805F499
:10127000E061090A434D6B5C4568DD4085603A4D8D
:101280006D6805F46051C90A3E4D6B5C4568DD40F0
:10129000C560354D6D6805F44041890B3A4D6B5C76
:1012A000C568B5FBF3F5056130BD29B12E4A526919
:1012B00002432D4B5A6104E02B4A526982432A4B68
:1012C0005A61704729B1284A92690243264B9A61B4
:1012D00004E0254A92698243234B9A61704729B101
:1012E000214AD2690243204BDA6104E01E4AD269E6
:1012F00082431D4BDA61704729B11B4AD268024311
:10130000194BDA6004E0184AD2688243164BDA605F
:10131000704729B1144A12690243134B1A6104E061
:10132000114A12698243104B1A61704712494039C1
:10133000086070470F49C86470470B49C87170470F
:101340000948406A40F0807007494862704701468A
:101350000020054A92680A400AB1012000E00020FE
:101360007047014988727047001002400000FFF882
:10137000FFFFF6FE000042428004424200127A0063
:1013800000093D00600000207000002010B50446F8
:10139000FE48844208D10121C014FFF7ADFF0021AF
:1013A000E014FFF7A9FFC4E0B4F1804F08D1012198
:1013B0000846FFF7AEFF00210120FFF7AAFFB8E0C3
:1013C000F348844208D101210220FFF7A2FF002147
:1013D0000220FFF79EFFACE0EE48844208D10121D5
:1013E0000420FFF796FF00210420FFF792FFA0E002
:1013F000E948844208D101210820FFF78AFF002133
:101400000820FFF786FF94E0E448844208D10121D8
:101410001020FFF77EFF00211020FFF77AFF88E001
:10142000DF48844208D101212020FFF772FF00210C
:101430002020FFF76EFF7CE0DA48844208D10121CA
:101440004014FFF759FF00216014FFF755FF70E0CB
:10145000D548844209D10121C804FFF74DFF00217E
:101460004FF40020FFF748FF63E0D048844209D1E1
:1014700001210805FFF740FF00214FF48010FFF71E
:101480003BFF56E0CA48844209D101214805FFF7D5
:1014900033FF00214FF40010FFF72EFF49E0C5484D
:1014A000844208D101214020FFF733FF0021402072
:1014B000FFF72FFF3DE0C048844208D10121802082
:1014C000FFF727FF00218020FFF723FF31E0BB4813
:1014D000844208D101218015FFF71BFF0021A015D0
:1014E000FFF717FF25E0B648844209D1012108041F
:1014F000FFF702FF00214FF48030FFF7FDFE18E0F8
:10150000B048844209D101214804FFF7F5FE0021CB
:101510004FF40030FFF7F0FE0BE0AB48844208D1F7
:1015200001218804FFF7E8FE00214FF48020FFF737
:10153000E3FE10BD00220288944B98420ED0994BD6
:1015400098420BD0B0F1804F08D0914B984205D013
:10155000904B984202D0904B984204D14FF68F7333
:101560001A404B881A438D4B984207D08C4B9842B7
:1015700004D04FF6FF431A40CB881A4302808B8871
:1015800083850B880385814B98420BD0854B98420D
:1015900008D08B4B984205D08A4B984202D08A4B98
:1015A000984201D10B7A038601238382704770B57C
:1015B000002400220023058C4FF6FE76354005847A
:1015C000028C8388048B4FF68F752C40B51E2C40FF
:1015D0000D882C43751E2A400D892A434D882A43C5
:1015E0006A4DA8420BD06F4DA84208D0744DA84256
:1015F00005D0744DA84202D0734DA84213D14FF6C6
:10160000F7752A404D892A434FF6FB752A408D888D
:101610002A434FF6FF652B404FF6FF552B408D892F
:101620002B43CD892B4383800483CD888586028418
:1016300070BD70B5002400220023058C4FF6EF76B4
:1016400035400584028C8388048B48F6FF752C4056
:101650004FF6FF452C400D884FF6FF7606EA05252C
:101660002C434FF6DF752A400D8906EA05152A43FB
:101670004D8806EA05152A43444DA84202D0494D3B
:10168000A8421DD14FF67F752A404D894FF6FF764F
:1016900006EA05152A434FF6BF752A408D8806EAEB
:1016A00005152A434FF6FF352B404FF2FF752B40AF
:1016B0008D8906EA85052B43CD8906EA85052B43EE
:1016C00083800483CD880587028470BD70B50024B3
:1016D00000220023058C4FF6FF6635400584028CFE
:1016E0008388848B4FF68F752C404FF6FC752C4009
:1016F0000D882C434FF6FF552A400D894FF6FF7693
:1017000006EA05252A434D8806EA05252A431F4D8A
:10171000A84202D0234DA8421DD14FF2FF752A40A6
:101720004D894FF6FF7606EA05252A434FF6FF3529
:101730002A408D8806EA05252A434EF6FF752B4080
:101740004DF6FF752B408D8906EA05152B43CD8993
:1017500006EA05152B4383808483CD888587028420
:1017600070BD70B5002200230024058C4EF6FF7674
:1017700035400584038C8488828B48F6FF752A40A7
:101780004FF6FF452A400D8820E00000002C014064
:101790000004004000080040000C00400010004021
:1017A0000014004000340140004C01400050014052
:1017B0000054014000180040001C00400020004080
:1017C0000040014000440140004801404FF6FF76D0
:1017D00006EA05252A434DF6FF752B400D8906EADA
:1017E00005352B434D8806EA05352B43FA4DA842B3
:1017F00002D0FA4DA84208D14BF6FF752C408D89D6
:101800004FF6FF7606EA85152C4384808283CD88C7
:10181000A0F84050038470BD828B4FF2FF331A4012
:101820008283828B4FF6FF7303EA01231A4382837C
:101830007047F0B50C461546002200210026078CA3
:101840004EF6FF7C07EA0C070784828B018C4FF66B
:10185000FF7707EA043640F6FF473A404FF6FF7736
:1018600007EA05273A434FF6FF7707EA03373A437B
:10187000D94FB8420ED0D94FB8420BD0B0F1804FFB
:1018800008D0D74FB84205D0D64FB84202D0D64F75
:10189000B84206D14DF6FF77394046F480573943B8
:1018A00005E047F6FF57394044F4805739438283B7
:1018B0000184F0BD828B4FF6F3731A408283828BD2
:1018C0000A4382837047F0B50C461546002200217A
:1018D0000026078C4FF6FF6C07EA0C070784828B03
:1018E000018C4FF6FF7707EA04264FF60C773A4053
:1018F0004FF6FF7707EA03172F433A43B64FB84234
:101900000ED0B64FB8420BD0B0F1804F08D0B44FD4
:10191000B84205D0B34FB84202D0B34FB84206D157
:101920004FF6FF57394046F48077394305E04FF2D0
:10193000FF57394044F48077394382830184F0BDF6
:10194000028B4FF2FF331A400283028B4FF6FF7374
:1019500003EA01231A4302837047F0B50C4615468B
:10196000002200210026078C4FF6EF7C07EA0C07C7
:101970000784028B018C4FF6FF7707EA041640F6C6
:10198000FF473A404FF6FF7707EA03373A434FF6EF
:10199000FF7707EA05273A438F4FB8420ED08F4FA3
:1019A000B8420BD0B0F1804F08D08D4FB84205D06F
:1019B0008C4FB84202D08C4FB84206D14FF6DF7739
:1019C000394046F01007394305E04FF65F7739405C
:1019D00044F01007394302830184F0BD028B4FF6B7
:1019E000F3731A400283028B0A4302837047F0B5F7
:1019F0000C46154600220021068C4FF6FE773E402D
:101A00000684028B018C4FF60C7632407E1C06EA6F
:101A100003162E433243704EB0420ED06F4EB0428A
:101A20000BD0B0F1804F08D06D4EB04205D06D4E56
:101A3000B04202D06C4EB04206D14FF6FD76314036
:101A400044F00106314305E04FF6F576314044F0AD
:101A50000106314302830184F0BD70B505460C4692
:101A60005D4885420ED05D4885420BD0B5F1804F70
:101A700008D05B48854205D05A48854202D05A4872
:101A8000854200D100E000BF208850B92389A28898
:101A900061882846FFF7ABFFE1882846FFF79EFFE5
:101AA00025E0208804280AD12389A2886188284655
:101AB000FFF753FFE1882846FFF742FF17E0208831
:101AC00008280AD12389A28861882846FFF7FBFEEF
:101AD000E1882846FFF7EEFE09E02389A2886188A5
:101AE0002846FFF7A6FEE1882846FFF795FE70BD61
:101AF0002DE9F04105460C4600260127608808B90B
:101B0000022600E00026A088012801D1022700E07B
:101B100001272088A0B92389A28861882846FFF779
:101B200066FFE1882846FFF759FF23893A46314688
:101B30002846FFF712FFE1882846FFF701FF13E070
:101B40002389A28861882846FFF707FFE188284695
:101B5000FFF7F6FE23893A4631462846FFF747FF4E
:101B6000E1882846FFF73AFFBDE8F0810A884B88F4
:101B70001A438B881A43CB881A430B891A434B8923
:101B80001A438B891A43A0F8442070474FF6FF711F
:101B9000818000210180C180418001727047002155
:101BA000018041808180C180018141818181C18129
:101BB0007047002101804180012181800021C18086
:101BC000018170470021018041808180C1800181B5
:101BD0004181818170470000002C014000340140A8
:101BE0000004004000080040000C004021B10288C1
:101BF00042F00102028004E002884FF6FE731A40B0
:101C00000280704731B1B0F8442042F40042A0F89D
:101C1000442005E0B0F84420C2F30E02A0F84420AE
:101C200070471AB183890B43838102E083898B4318
:101C3000838170478182704741EA0203A0F84830EF
:101C400070471AB183890B43838102E083898B43F8
:101C50008381704701894FF6F87211400181704706
:101C60000A46002101894FF68F7319401143018103
:101C7000704730B504460D4629462046FFF7F0FF71
:101C8000208940F00700208130BD2DE9F041044655
:101C90000D4616461F46602D06D13B4601223146B1
:101CA0002046FFF75AFE05E03B460122314620461A
:101CB000FFF79DFE29462046FFF7D2FF208940F01E
:101CC00007002081BDE8F08130B50C460021018974
:101CD000C9B24FF6FF7505EA03251543254329438D
:101CE000018130BD2DE9F04105460E461746984664
:101CF000002443463A4631462846FFF7E5FF2C8943
:101D00004FF6F870044044F007044FF68F7004401B
:101D100044F070042C81BDE8F081F0B504460D4616
:101D200016461F463B46324629462046FFF7CCFF63
:101D3000208940F480402081F0BD01858282704777
:101D40000A46002101884FF68F7319401143018024
:101D50007047F0B50C4615461E46002100220023B0
:101D60000189028B038C4FF6F877394021434FF6F7
:101D7000FC473A4040F201173A434FF6DD773B40CB
:101D80004FF6FF7707EA06172F433B430181028393
:101D90000384F0BD0A460021018B4FF68F73194072
:101DA0001143018370470A460021018B48F6FF73F7
:101DB00019404FF6FF7303EA02231943018370476A
:101DC0000A460021818B4FF68F731940114381839E
:101DD00070470A460021818B48F6FF7319404FF681
:101DE000FF7303EA022319438183704721B10288FC
:101DF00042F08002028004E002884FF67F731A40AE
:101E00000280704721B1828842F00402828004E09F
:101E100082884FF6FB731A408280704721B1828816
:101E200042F00802828004E082884FF6F7731A407D
:101E30008280704721B1828842F00102828004E0F2
:101E400082884FF6FE731A40828070470A4600214E
:101E5000018B4FF6F77319401143018370470A460F
:101E60000021018B4FF2FF7319404FF6FF7303EA15
:101E700002231943018370470A460021818B4FF6E4
:101E8000F77319401143818370470A460021818B03
:101E90004FF2FF7319404FF6FF7303EA0223194311
:101EA000818370470A460021018B4FF6FB7319406E
:101EB0001143018370470A460021018B4FF6FF331F
:101EC00019404FF6FF7303EA022319430183704759
:101ED0000A460021818B4FF6FB7319401143818321
:101EE00070470A460021818B4FF6FF3319404FF6A9
:101EF000FF7303EA02231943818370470A460021D6
:101F0000018B4FF67F7319401143018370470A46D6
:101F10000021018BC1F30E014FF6FF7303EA022388
:101F20001943018370470A460021818B4FF67F7366
:101F300019401143818370470A460021818BC1F308
:101F40000E014FF6FF7303EA0223194381837047A2
:101F50000A460021018C4FF6FD731940114301849C
:101F600070470A460021018C4FF6F7731940114360
:101F7000018470470A460021018C4FF6DF73194037
:101F80004FF6FF7303EA02131943018470470A46B0
:101F90000021018C4FF67F7319404FF6FF7303EA5F
:101FA00002131943018470470A460021018C4FF641
:101FB000FF5319404FF6FF7303EA022319430184CC
:101FC00070470A460021018C4FF2FF7319404FF60B
:101FD000FF7303EA02231943018470470A46002174
:101FE000018C4DF6FF7319404FF6FF7303EA02337D
:101FF00019430184704730B5002301248C40A3B2FB
:10200000048C9C430484048C02FA01F5ADB22C4389
:10201000048430BD30B5002304248C40A3B2048C6A
:102020009C430484048C02FA01F5ADB22C43048471
:1020300030BD70B503460020002418461830012535
:102040008D40ACB21D8CA5431D8409B1082909D16E
:1020500000EB6100056825F0700505600568154313
:1020600005600EE00D1FC5F34E052844056825F4F4
:10207000E045056005684FF6FF7606EA022635431F
:10208000056070BD21B1028842F00202028004E0C6
:1020900002884FF6FD731A400280704721B1028812
:1020A00042F00402028004E002884FF6FB731A40FB
:1020B0000280704721B1828842F08002828004E071
:1020C00082884FF67F731A408280704702884FF6ED
:1020D000F7731A40028002880A43028070478288A0
:1020E0004FF68F731A40828082880A43828070473D
:1020F00002894FF6F8731A40028102890A4302816D
:10210000704702894FF67F731A40028102890A43A1
:10211000028170478184704781857047818670474E
:102120000187704781877047A0F840107047028888
:102130004FF6FF431A40028002880A43028070472C
:102140000146888E70470146088F70470146888F88
:1021500070470146B1F8400070470146888C7047CF
:102160000146088D704702460020138A0B400BB1D0
:10217000012000E000207047CA430282704730B55A
:102180000246002000230024158A05EA01039589F0
:1021900005EA010413B10CB1012000E0002030BDBC
:1021A000CA4302827047000010B50446FB488442CF
:1021B00009D101218803FFF79FF800214FF48040E7
:1021C000FFF79AF832E0F648844209D10121480429
:1021D000FFF79FF800214FF40030FFF79AF825E051
:1021E000F048844209D101218804FFF792F80021C8
:1021F0004FF48020FFF78DF818E0EB48844209D1B6
:102200000121C804FFF785F800214FF40020FFF7F3
:1022100080F80BE0E548844208D101210805FFF76A
:1022200078F800214FF48010FFF773F810BD2DE906
:10223000F04786B005460E460024A24600BFA146E0
:102240000027B08900B100BF2F462C8A4CF6FF70E2
:102250000440F08804432C82AC894EF6F31004400D
:10226000B08831890843718908430443AC81AC8A42
:102270004FF6FF400440B0890443AC8201A8FEF74A
:10228000B4FFC648874202D1DDF810A001E0DDF8B6
:102290000CA0A88900F4004040B10AEBCA0000EB92
:1022A0000A1031684900B0FBF1F807E00AEBCA00F8
:1022B00000EB0A1031688900B0FBF1F86420B8FB2C
:1022C000F0F004012009642101FB1089A88900F4C1
:1022D000004040B1322000EBC900B0FBF1F000F04B
:1022E0000700044308E0322000EB09106421B0FB32
:1022F000F1F000F00F0004432C8106B0BDE8F08738
:102300004FF41651016000218180C18001810C21B0
:10231000418100218181704710B502460020108A5A
:102320004FF2FF0318400B884C8823438C882343CB
:10233000CC8823431843108210BD002101804180C6
:102340008180C180704721B1828942F4005282812C
:1023500004E082894DF6FF731A4082817047F0B520
:102360000346002400260025002040F66A17B942E3
:1023700000D100BF1846C1F3421401F01F06012727
:1023800007FA06F5012C01D10C3004E0022C01D132
:10239000103000E014301AB107682F43076002E0E4
:1023A0000768AF430760F0BD1AB1838A0B4383828D
:1023B00002E0838A8B4383827047028A4FF6F07370
:1023C0001A400282028A0A430282704782894FF2CF
:1023D000FF731A40828182890A438281704721B14A
:1023E000828942F00202828104E082894FF6FD7305
:1023F0001A4082817047028A4FF6DF731A400282C8
:10240000028A0A430282704721B1028A42F4804262
:10241000028204E0028A4BF6FF731A400282704780
:10242000C1F308028280704701468888C0F3080023
:102430007047818941F0010181817047028BD2B2DE
:102440000283028B42EA012202837047028B02F46C
:102450007F420283028B0A430283704721B1828A42
:1024600042F02002828204E0828A4FF6DF731A4033
:102470008282704721B1828A42F01002828204E097
:10248000828A4FF6EF731A408282704721B1828AA6
:1024900042F00802828204E0828A4FF6F7731A4003
:1024A0008282704721B1828942F40042828103E036
:1024B0008289C2F30E028281704721B1828A42F47E
:1024C0000062828204E0828A4FF2FF731A408282A5
:1024D0007047828A4FF6FB731A408282828A0A43CF
:1024E0008282704721B1828A42F00202828204E035
:1024F000828A4FF6FD731A4082827047024600209E
:10250000B1F5007F00D100BF13880B400BB1012053
:1025100000E00020704701F40072B2F5007F00D1A6
:1025200000BFCA430280704770B5024600240023F2
:102530000025002040F66A16B14200D100BFC1F369
:10254000421501F01F03012606FA03F3012D02D103
:102550009689334006E0022D02D1168A334001E00D
:10256000968A33400C12012606FA04F41688344089
:1025700013B10CB1012000E0002070BD10B50022A5
:10258000002340F66A14A14200D100BF0A120124C0
:102590009440A3B2DC43048010BD00000038014029
:1025A0000044004000480040004C00400050004003
:1025B00010B56FF00400FDF7CCFF2E4800682E49DF
:1025C000B0FBF1F02D4908700846007800EB40019F
:1025D000C1EBC0104FF6FF7101EAC0002849088026
:1025E00010BD0146254A12784A434FF0E0235A6154
:1025F00000229A611A46126942F001021A6100BF74
:102600004FF0E022106900F001021AB100F48032AC
:10261000002AF5D04FF0E022126922F001024FF0BB
:10262000E0231A6100229A6170470146144A128819
:102630004A434FF0E0235A6100229A611A46126918
:1026400042F001021A6100BF4FF0E022106900F071
:1026500001021AB100F48032002AF5D04FF0E022D6
:10266000126922F001024FF0E0231A6100229A6100
:10267000704700000000002000127A007400002063
:1026800076000020A34A0A400243A34B1A60704719
:102690000146072323EA010212029F4B1B1D186803
:1026A0004FF6FF0318409D4B184310439A4B1B1DD8
:1026B000186070472DE9F0410746884614461D46CC
:1026C0002846FFF7E5FFC5F1040007FA00F60F20E2
:1026D000284100EA0800064306F00F06E21704EB63
:1026E000D2625211920002F1E022D2F8002121467A
:1026F000E31704EBD3635B11A4EB431C012303FA40
:102700000CF31A432046E31704EBD3635B119B00E1
:1027100003F1E023C3F800218148005D40EA061080
:102720007F490855BDE8F08170B504460B46CE17C9
:1027300001EB9676C6F38700CE1701EB9676B610BE
:10274000A1EB8606B606350E764B9B6943F0010376
:10275000744EB3614FEAB63353F820300F26AE40C3
:10276000B343714E46F82030334653F8203004FA14
:1027700005F61E436C4B43F820606C4B1B6801262A
:102780008E403343694E336002F0010343B1674B1F
:102790000C331B6801268E403343644E0C36336085
:1027A00002F0020343B1614B08331E6801238B40E2
:1027B0001E435E4B08331E6070BD00B500205949B2
:1027C0000861C8601420486100208861C86108461B
:1027D000006840F00100086008464068544908401D
:1027E0005049486008460068524908404D49086011
:1027F0000846006820F4802008600846406820F4FD
:10280000FE0048600020886000214FF00060FFF764
:1028100039FF00BD10B540480830006840F00400A2
:102820003D49083108603F48C06940F080503D494B
:10283000C8614148406840F480703F49486008469C
:10284000006840F0040008600846006840F002009C
:102850000860FDF7BDFC10BD3048001D2E49091D64
:1028600008607047014649062E4A926942F001020B
:102870002C4B9A612C4A083A526822F0E0622A4BAB
:10288000083B5A601A4652680A435A60704730B58E
:1028900004460025FFF791FF2248006840F480308D
:1028A0002049086000BF1F480068400C0028FAD08B
:1028B0004FF480601B494860A01EC4B208464068BF
:1028C00040EA844048600846406840F480304860F0
:1028D0001A48006840F03200184908601148006842
:1028E00040F080700F49086000BF0E480068400E3D
:1028F0000028FAD00B48406840F0020009494860BF
:1029000005E008484068C0F3870505F00305022D7F
:10291000F7D130BD80FFFF1F08ED00E00000FA0591
:1029200000E400E000100240080001400004014003
:102930000000FFF8FFFFF6FE00700040002002409C
:10294000014600BF70472C4A12785AB900BF2B4A83
:10295000128802F04002002AF9D0C2B2274B1B1D98
:102960001A800AE000BF264A128802F04002002ABC
:10297000F9D0C2B2224B1B1D1A80704710B586B029
:102980000446012144F20400FEF79CFC4FF4007061
:10299000ADF8140003208DF8160018208DF81700EC
:1029A00005A91848FEF76CF94FF48060ADF81400E3
:1029B00004208DF8170005A91248FEF761F901946B
:1029C0000020ADF80800ADF80A00ADF80C00ADF835
:1029D00010000C20ADF80E0001A90948FFF727FCF4
:1029E000002240F225510648FFF7B9FC01210448B6
:1029F000FFF7A9FC06B010BD1B00002000480040F6
:102A0000003801400008014008B501210420FEF70C
:102A100059FC1020ADF800008DF8030003208DF85C
:102A2000020069460C48FEF72BF908BD18B90021D1
:102A30000A4A11600FE00A490968491C084A1160F6
:102A4000814208D105490968C943064AC2F8901174
:102A50000021034A116070470008014090012142A3
:102A60007C0000200000214208B501210420FEF76F
:102A700029FC2020ADF8000048208DF803006946AD
:102A80004B48FEF7FDF808BD01464A48006828B9E2
:102A900049480088401C484A108002E00020464A0D
:102AA00010804448006828B94448007810B90120D3
:102AB000424A107042480078B0B940480078012876
:102AC00007D140480078401C3E4A107001203C4A23
:102AD00010703C480078022806D10020394A107056
:102AE000394A10800220704732480068012804D11A
:102AF0000020324A1070324A1070324800780128A3
:102B00001CD131480088401C2F4A10801046008894
:102B100088420ADD28480088884206DA0020294ACF
:102B20001070294A10800120DDE723480088884280
:102B300004DD0020234A1070234A10800020D2E7D1
:102B40002248007838B11B48006820B900201F498E
:102B500008700120704717480068012801D11B49FF
:102B600008700020F6E71A48008840B9114800684C
:102B700028B918480088401C1649088002E0002047
:102B80001449088013480088C82807DD012010492F
:102B9000088000200F490880012070470C480088F9
:102BA000012802D100200A4908800020F5E7000032
:102BB000000801401401214286000020800000200E
:102BC0008100002082000020840000208800002076
:102BD0008C0000208A00002010B50A461AB101239B
:102BE000FE4C236002E00023FC4C2360002114E033
:102BF0000023FB4C236000F080031BB10123241F42
:102C0000236003E00023F64C241F23600123F44CCF
:102C100023604306180E4B1CD9B20829E8DB0123B8
:102C2000EE4C236010BD30B500241CE004F1B0016F
:102C3000C8B20021FFF7D0FF00210846FFF7CCFF04
:102C400000211020FFF7C8FF002508E0E54901EB4F
:102C5000C501085D0121FFF7BFFF681CC5B2802DCB
:102C6000F4DB601CC4B2082CE0DB30BD00B50021F1
:102C70008D20FFF7B1FF00211420FFF7ADFF0021E9
:102C8000AF20FFF7A9FF00BD00B500218D20FFF7A1
:102C9000A3FF00211020FFF79FFF0021AE20FFF7C8
:102CA0009BFF00BD30B500240CE0002506E00020AD
:102CB000CC4901EBC5010855681CC5B2802DF6DB77
:102CC000601CC4B2082CF0DBFFF7ADFF30BDF0B5DF
:102CD000144600267F2801DC3F2900DDF0BD0B46AD
:102CE000CF1701EB5777FF10C7F10707FAB2CF17DD
:102CF00001EB5777FF10A1EBC707FDB2C5F107073E
:102D00000123BB40DEB24CB1B64B03EBC0039B5C6E
:102D10003343B44F07EBC007BB5408E0B14B03EBA0
:102D2000C0039B5CB343AF4F07EBC007BB5400BF6E
:102D3000D4E72DE9F04F80460C4615461E46A346C3
:102D4000A5F12000C5B200273EE00C2E07D105EB0F
:102D50004500A54901EB800010F8079004E0A34866
:102D600000EB051010F807904FF0000A26E009F07C
:102D7000800028B121464046099AFFF7A8FF09E0E4
:102D8000099808B9012000E000200246214640468B
:102D9000FFF79DFF4FEA49604FEA1069601CC4B21B
:102DA000A4EB0B00B04205D15C4608F1010000F035
:102DB000FF0806E00AF1010000F0FF0ABAF1080F6F
:102DC000D5DB00BF781CC7B2B742BEDBBDE8F08FD1
:102DD00010B50246012000E050430B1EA1F1010492
:102DE000E1B2F9D110BD2DE9FF4F81B00746914600
:102DF0001E460E9D4FF0000A002439E0301B401E95
:102E0000C1B20A20FFF7E4FFB9FBF0F00A21B0FBE2
:102E1000F1F201FB1208BAF1000F16D1701EA042A8
:102E200013DDB8F1000F0ED10120AB4605EBDB71CD
:102E3000491001FB04710090C8B22B462022029970
:102E4000FFF777FF12E04FF0010A0120AB4605EBD8
:102E5000DB71491001FB04710090C8B208F1300128
:102E6000CAB22B460299FFF764FF00BF601CC4B2D0
:102E7000B442C3DB05B0BDE8F08F78B505460E4619
:102E8000144618E07A2D03DD002506F11000C6B2C5
:102E90003A2E04DD002005460646FFF703FF012019
:102EA000009022780C2331462846FFF742FF05F1B7
:102EB0000800C5B2641C20780028E3D178BD08B5AD
:102EC00001210820FEF7FEF93820ADF8000010209F
:102ED0008DF8030002208DF8020069464448FDF792
:102EE000CFFE01210420FEF7EDF94FF40040ADF8CC
:102EF000000002208DF8020010208DF803006946C2
:102F00003C48FDF7BDFE0120FEF713F80020FEF758
:102F100046F90020FDF76FFD0020FEF70AF80020BB
:102F20002F49083908606420FFF77FFB01203249F0
:102F3000C1F88C010021AE20FFF74EFE0021D52004
:102F4000FFF74AFE00215020FFF746FE0021A8208F
:102F5000FFF742FE00213F20FFF73EFE0021D32075
:102F6000FFF73AFE00210846FFF736FE0021402019
:102F7000FFF732FE00218D20FFF72EFE00211420E6
:102F8000FFF72AFE00212020FFF726FE0021022065
:102F9000FFF722FE0021A120FFF71EFE0021C02026
:102FA000FFF71AFE0021DA20FFF716FE002112209B
:102FB000FFF712FE00218120FFF70EFE0021EF2017
:102FC000FFF70AFE0021D920FFF706FE0021F120BD
:102FD000FFF702FE0021DB2010E00000BC012142CF
:102FE00094812142E00100203AB80008AEBC0008FC
:102FF000000C01400008014000802142FFF7ECFD79
:1030000000213020FFF7E8FD0021A420FFF7E4FDB8
:103010000021A620FFF7E0FD0021AF20FFF7DCFD37
:10302000FFF740FE08BD000000B587B001214FF456
:103030000170FEF747F94FF40040FEF7A7F8402073
:10304000ADF8040000208DF8070001A93648FDF70F
:1030500017FE3648FDF79CFA002002908DF80C0010
:103060008DF80D004FF460200490002005900120A1
:103070008DF8180002A92D48FDF7B1FA01212B485F
:10308000FDF7D9FA2948FDF7F8FA00BF2748FDF700
:10309000F9FA0028FAD12548FDF7FEFA00BF2348C7
:1030A000FDF7FFFA0028FAD107B000BD10B50446BD
:1030B0000723012221461D48FDF729FB01211B485A
:1030C000FDF7F9FA00BF02211848FDF765FC00285A
:1030D000F9D01648FDF782FB10BD2DE9F04F85B001
:1030E0000620FFF7E3FF019007F026FC4FF0663261
:1030F0000F4BCDE9020107F06FFC804600220D4B1B
:1031000007F06AFC064600220B4B07F065FC0446FC
:1031100000220A4B07F072FA824607F0C7FB0490C0
:10312000049805B0BDE8F08F00080140002401407C
:1031300066660A4000002640000059400000B0408A
:1031400030B585B005460C4601210220FEF7C7F8D0
:1031500001210820FEF7B6F80120ADF81000282064
:103160008DF8130004A96748FDF78AFD0220ADF829
:10317000100010208DF8130002208DF8120004A911
:103180006048FDF77DFDADF80850ADF80440002023
:10319000ADF80A00ADF8060001A95B48FEF7CAF9D0
:1031A00008205A490880002048800120888000209B
:1031B000C88008815448FEF750FC1D208DF800009F
:1031C00002208DF801008DF8020001208DF8030027
:1031D0006846FDF774F9012209214B48FEF721FDED
:1031E00001214948FEF702FD05B030BD10B50120B0
:1031F000474908600F20FFF7F4F900204549C1F85E
:1032000084014548007800F08000E8B14248007829
:1032100000F03F004149086008460088000408604B
:10322000084600683E49098808443C490860084649
:103230000068AA2148434FF47A71B0FBF1F0374996
:10324000086000203449088010BD2F4910310888DB
:103250003149097801F0800100294ED100F00101C7
:10326000D1B12D49097801F04001A9B12A49097865
:1032700001F03F013F290AD12749098841F0800127
:10328000254A11804FF6FF71254A118004E022493A
:103290000988491C204A118000F0080169B31E49C1
:1032A000097801F0400199B11B49098841F080017A
:1032B000194A118014493C310988194A1180124970
:1032C0002031098821F400710F4A2032118014E066
:1032D0000021114A1180124A11800F49098841F0DA
:1032E00040010D4A11800021074A24321180111F2C
:1032F000098841F40071121F11800021024A103226
:1033000011807047000C014000040040E0050020DF
:1033100084812142008021428E000020380000205C
:103320009000002008B501210820FDF7CBFF4FF4E5
:103330007040ADF8000010208DF8030003208DF8D8
:10334000020069462A48FDF79BFC08BD30B589B0EC
:1033500005460C46FFF7E6FF0121C802FDF7B2FF64
:1033600001210420FDF7AEFF4FF41060ADF82000FE
:1033700018208DF8230003208DF8220008A91D488D
:10338000FDF77EFCADF81850ADF814400020ADF804
:103390001A00ADF8160005A91748FEF7CBF8602013
:1033A000ADF804000120ADF806000020ADF80A00D9
:1033B000ADF80C0001A91048FEF7F9F801A90E4874
:1033C000FEF7CFF901210C48FEF71CFC08210A4842
:1033D000FEF73CFD08210848FEF757FD012106488D
:1033E000FEF704FD01210448FEF700FC09B030BDE2
:1033F000000C014000080140002C014000B587B0DE
:1034000001210846FDF76BFF01210420FDF75AFF5B
:103410000320ADF8000004208DF8030069466148E0
:10342000FDF72EFC04A8FEF7B1FB0020ADF810005C
:103430004FF6FF70ADF814000020ADF81600ADF89F
:10344000120004A94FF08040FEF774F800231A46DA
:1034500003214FF08040FEF77CFC01A8FEF7A9FB9A
:103460000A20ADF80C0001A94007FEF7F6FA012189
:103470008807FEF781FE012211469007FEF7D1FB77
:1034800000214FF08040FEF745FE01218807FEF73E
:10349000ADFB07B000BD00B587B001210420FDF7EA
:1034A0001EFF01210820FDF70DFFC020ADF8000030
:1034B00004208DF8030069463B48FDF7E1FB04A8B2
:1034C000FEF764FB0020ADF810004FF6FF70ADF87A
:1034D00014000020ADF81600ADF8120004A933481E
:1034E000FEF728F800231A4603213048FEF731FC86
:1034F00001A8FEF75EFB0A20ADF80C0001A92B48DD
:10350000FEF7ABFA01212948FEF736FE01221146EB
:103510002648FEF786FB00212448FEF7FBFD01212B
:103520002248FEF763FB07B000BD0146022904D024
:1035300003290BD0042919D10FE04FF08042928C5F
:1035400010B200224FF080439A8411E0184A12888A
:1035500010B20022164B1A800AE0144A2432128854
:1035600010B20022114B24331A8001E0002000BF6A
:1035700000BF70470D48103000880C48103000889C
:1035800020F0010009491031088070474FF0804059
:10359000008A4FF08040008A20F001004FF0804107
:1035A0000882704700080140000C014000080040FC
:1035B0002404004008B501210820FDF783FE4FF4E4
:1035C0004070ADF8000010208DF8030003208DF846
:1035D00002006946F748FDF753FB08BD10B5F548F2
:1035E000001D006820F0F000F249091D086008463F
:1035F000006840F0300008600120EF490860EF48A3
:10360000D0F8240108B9002010BD0120EA49091FA3
:103610000860FEF7E6FF0020E849C1F8A401E6488B
:103620008038006808B10020EEE70120FEF7D9FFDE
:103630000020E149091F08600120E5E710B5DD48D9
:10364000001D006820F0F000DA49091D08600846F6
:10365000006840F0300008600020D749091F08606A
:10366000D649C1F8A4010120FEF7BBFF0120D249D1
:10367000091F0860D149C1F8A401FEF7B2FF10BDCF
:1036800010B50024CB48001D006820F0F000C949A7
:10369000091D08600846006840F0800008600120AD
:1036A000C5490860FEF79DFF0120C449C1F8A0018B
:1036B000FEF797FF0AE0601CC4B2322C03DDFFF76F
:1036C000BDFF002010BD0120FEF78BFFBA488038F7
:1036D00000680028EFD1B849091F08600120F1E710
:1036E00010B50020B449091F0860B248001D0068E9
:1036F00020F0F000AF49091D08600846006840F05E
:10370000300008600020AD49C1F8A4010120FEF797
:1037100068FF0120A849091F0860FEF762FF00202A
:10372000A649C1F8A00110BD10B50020A249091F8B
:103730000860A048001D006820F0F0009D49091DA8
:1037400008600846006840F03000086001209B498E
:10375000C1F8A401FEF745FF01209749091F086041
:10376000FEF73FFF00209549C1F8A00110BD70B5DC
:1037700004469048001D006820F0F0008D49091DA6
:1037800008600846006840F03000086000208A4960
:10379000091F0860002516E0E009874908606006F7
:1037A000040E0120FEF71DFF01208449C1F8A0018D
:1037B000FEF717FF00208049091F08600120FEF76F
:1037C00010FF681CC5B2082DE6DB70BD2DE9F04185
:1037D00005460E4617469846FFF700FF10B9012030
:1037E000BDE8F0816906080EFFF7C1FFFFF748FF4B
:1037F00018B9FFF723FF0120F2E73046FFF7B7FFC4
:10380000FFF73EFF00240BE018F80400FFF7AFFFBE
:10381000FFF736FF18B9FFF711FF0020E0E7641C3F
:10382000BC42F1DBFFF70AFF0020D9E770B505467F
:1038300000246048001D006820F0F0005D49091D6B
:1038400008600846006840F080000860002617E025
:1038500000205949091F08600220FEF7C2FE01201E
:103860005649C1F8A0016006040E5348803800682C
:1038700008B1601CC4B20220FEF7B3FE701CC6B2D1
:10388000082EE5DB15B1FFF72BFF01E0FFF74CFF3A
:10389000204670BD2DE9F04106460F4614461D46F0
:1038A000FFF79CFE10B90120BDE8F0817106080EFB
:1038B000FFF75DFFFFF7E4FE18B9FFF7BFFE012039
:1038C000F2E73846FFF753FFFFF7DAFEFFF786FE11
:1038D000012101EB4601C8B2FFF749FFFFF7D0FE17
:1038E0000DE0012C04D10020FFF7A0FF287003E0B9
:1038F0000120FFF79BFF28706D1C601EC4B2002CD6
:10390000EFD1FFF79BFE0020CEE770B505460E46CF
:103910000024FFF763FE2846FFF729FF641CFFF72A
:10392000AFFE3046FFF723FF641CFFF7A9FEFFF749
:1039300055FE691CC8B2FFF71AFF641CFFF7A0FE12
:103940000020FFF773FF0446FFF778FE204670BDA6
:103950002DE9F0410746884615461E460024FFF72C
:103960003DFE3846FFF703FFFFF78AFE4046FFF7AC
:10397000FEFEFFF785FEFFF731FE791CC8B2FFF7A8
:10398000F6FEFFF77DFE00BF0DE0681EA04204D0EA
:103990000120FFF74BFF305503E00020FFF746FF03
:1039A0003055601CC4B2AC42EFDBFFF747FE204647
:1039B000BDE8F081000C0140A48121420080214239
:1039C0002DE9F04180460D4616461F460024FFF7BC
:1039D00005FE4046FFF7CBFEFFF752FE2846FFF7F5
:1039E000C6FEFFF74DFE00BF06E0385DFFF7BFFEE5
:1039F000FFF746FE601CC4B2B442F6DBFFF71EFEC2
:103A00000120BDE8F08170B505460E4614463146EA
:103A10002846FFF77AFF2070012070BD37B50446B5
:103A20000D4602AB012229462046FFF7C9FF3EBDE5
:103A30002DE9F8430746884614461D46089E6A4607
:103A400041463846FFF7DFFF28B3601CFF2101FA2B
:103A500000F0C4F108012944491EFF220A41104325
:103A600000F0FF09C5F1080006FA00F0C6B2C4F183
:103A7000070006419DF8000000EA090000909DF84B
:103A80000000304300909DF8002041463846FFF783
:103A9000C5FFBDE8F8830020FBE7F8B506460F46F2
:103AA00014461D466A4639463046FFF7ACFF2DB135
:103AB0000120A0409DF80010084305E00120A0402F
:103AC0009DF8001021EA0000C0B200909DF800208F
:103AD00039463046FFF7A2FFF8BD000010B586B0AA
:103AE000044601210820FDF7EDFB01218804FDF7C4
:103AF000F6FB4FF48060ADF8140003208DF816003B
:103B000018208DF8170005A9EA48FDF7B9F84FF419
:103B10000060ADF8140004208DF8170005A9E548F1
:103B2000FDF7AEF827208DF8000000208DF8010089
:103B300001208DF802008DF803006846FCF7BFFCF9
:103B400001940020ADF80800ADF80A00ADF80C00B3
:103B5000ADF810000C20ADF80E0001A9D648FEF714
:103B600066FB012240F22551D348FEF7F8FB012104
:103B7000D148FEF7E8FB06B010BD2DE9FF5F40F22B
:103B80002551CD48FEF7D0FC002876D0CA48FEF774
:103B90004BFCCA49086008460078C9490870C74804
:103BA0000068592802D10220C6490870C34800683D
:103BB000582802D10120C3490870C04800680A286B
:103BC00065DDBE4800685A2809D10020BE4908704A
:103BD000BE490870BE490870BE49087057E0B74832
:103BE000006841280AD10120B74908700020B74970
:103BF0000870B7490870B749087048E0AF480068D6
:103C000045280BD10020B04908700120AF49087049
:103C10000020AF490870AF49087038E0A748006835
:103C2000422807D0A5480068432803D0A34800686D
:103C300044280AD10020A4490870A4490870A44966
:103C400008700120A349087021E09C4800684628BC
:103C500007D09A480068472803D098480068482849
:103C60000CD10020984908709849087001209849A3
:103C7000087000209749087009E002E1002092498D
:103C800008709249087092490870924908708B48F0
:103C900000680A2865DA01208A49087087480068A8
:103CA00048B9002088490870884908708849087018
:103CB0008849087055E081480068012809D1824987
:103CC0000870002081490870814908708149087096
:103CD00047E07A48006805280BD100207A4908702F
:103CE00001207A49087000207949087079490870E4
:103CF00037E072480068022807D07048006803283F
:103D000003D06E48006804280AD100206E4908706C
:103D10006E4908706E49087001206E49087020E0F5
:103D200066480068062807D064480068072803D062
:103D30006248006808280BD1002063490870634975
:103D4000087001206249087000206249087008E08C
:103D500000205D4908705D4908705D4908705D4943
:103D60000870574800787B2802D101205A49087012
:103D7000534800787D2802D10220574908705648E0
:103D8000007801280AD14E4800785449544A1278E4
:103D9000885453480078401C514908704E480078B8
:103DA00002286ED14D48C078502803D101204D49DA
:103DB000087070E04948407823286CD04848007863
:103DC0004949087034E046490978474A1278881A08
:103DD00006F09BFD804642460B460020434905F015
:103DE0000DFE04460D4640490978491E3B4A515C88
:103DF000A1F1300006F089FD064622462B4606F06A
:103E0000EBFD82468B463A48006807F0F5F85246CB
:103E10005B46CDE9000106F035FBCDE9020106F075
:103E2000FFFA3349086030480078401E2E49087078
:103E30002D4800780428C6DA284840783038092808
:103E400028D2DFE800F0050A0F14191F24252600E8
:103E500027480068274908601CE025480068264973
:103E6000086017E0224800682449086012E02048F2
:103E70000068234908600DE01D480068214908607A
:103E800008E015E01A4800681F49086002E001E0F8
:103E900000E000BF00BF00200F4908701049087003
:103EA000114908701249086032210C4805F084F865
:103EB000BDE8FF9F000C0140004800409800002032
:103EC000940000201900002015000020160000209A
:103ED00017000020180000209C000020EA050020A8
:103EE0009D0000203E0000209E0000200000244095
:103EF000A0000020480000204C00002050000020BE
:103F000054000020580000205C0000201FB5012153
:103F10000846FDF7D7F901210420FDF7D3F94FF446
:103F20008050ADF80C0048208DF80F0003A912480E
:103F3000FCF7A6FE0C210020FCF7B8FF4FF48050E0
:103F4000019000208DF808000C208DF80900012058
:103F50008DF80A0001A8FCF7B3FD28208DF80000B9
:103F600002208DF8010001208DF802008DF8030079
:103F70006846FCF7A4FA1FBD00080140014600296D
:103F800001DA484200E00846704700B503460A4699
:103F9000002B07DD0120FE4908600020FD49C1F823
:103FA000B00106E00020FA4908600120F949C1F893
:103FB000B0011846FFF7E2FFF7490880002A08DD44
:103FC0000120F349083108600020F249C1F8B80126
:103FD00007E00020EE49083108600120ED49C1F8F2
:103FE000B8011046FFF7CAFFEB490C39088000BD45
:103FF00070B506460D46E949304607F0F5F90CD391
:10400000E749304607F0F0FA07D3E6480078012880
:1040100003D040F2564085420DDA01240020DC49ED
:10402000091D0860DB49C1F8BC01D9490860D949BC
:10403000C1F8B00100E00024204670BD00B5024682
:104040000B46D848007810B90020D7490860D548F9
:10405000007801283DD10A2A3BDA1846FFF78EFF87
:10406000D14909680844D049086008460068062814
:1040700008DD08460068B42804DA0020CB4908703F
:10408000CB490870C8480068B4280ADDC6480068F3
:10409000B0F5B47F05DA0120C54908700020C34996
:1040A0000870C1480068B0F5B47F0ADDBE480068FA
:1040B000B0F5077F05DA0020BD4908700120BB4933
:1040C0000870B9480068B0F5077F02DD0020B649E6
:1040D000086000BD70B506460C461546B14800782C
:1040E00008B9002070BDB348008870B9B2493046A5
:1040F00007F07AFA09D2B149304607F075F904D2CF
:104100001CB915B90120AB490880AA4800880128CC
:1041100019D1AB480088401C80B2A94908803228D8
:1041200003DD00200880A3490880032C0BDD032D4C
:1041300009DD282C07DA282D05DA00209D490880A2
:1041400008800120CEE70020CCE72DE9F0410746AA
:104150000E4614461D469B480088E0B92046FFF7EE
:104160000DFF02462846FFF709FF10441E2805DA16
:1041700095480088401C9449088002E0002092493C
:104180000880914800880A2805DD01208D490880B3
:1041900000208D4908808B48008801281DD18B485C
:1041A0000088401C80B289490880C82803DD0020AF
:1041B0000880844908808649384607F015FA0CD2F1
:1041C0008449304607F010FA07D28349304607F099
:1041D0000BF902D202207B4908807A480088022825
:1041E00016D17E480088401C80B27C490880642833
:1041F00003DD00200880734908806019FFF7BEFEC8
:10420000462805DD00206F4908800120BDE8F081C7
:104210000020FBE703461846884200DD084690422E
:1042200000DA104670472DE9F04705466C480668ED
:104230006C48007801280FD16B48007807F0C0F86F
:1042400080466A48006880F000474146384606F0DC
:104250006DFF6749086013E06648007801280CD1BB
:104260006148007807F0ACF8074639465F480068B7
:1042700006F05CFF5E49086002E000205C490860CF
:104280005D480078012803D05C480078012802D1FD
:104290005B48046800E000242146284607F0D8F86F
:1042A0008146584906F042FF0746314650480068AB
:1042B00007F0CEF88146534906F038FF804639466C
:1042C00006F0C6FE504908600846006807F024F86A
:1042D000BDE8F0872DE9FC5F044689463348007845
:1042E000012803D032480078012803D147484849C3
:1042F000086002E04748464908603F4800780128C6
:104300000CD13948007807F05BF80546294640484B
:10431000006806F00BFF4049086016E03748007857
:1043200001280FD13048007807F04AF8064638488F
:10433000006880F000453146284606F0F7FE364911
:10434000086002E00020344908601848007801281D
:104350001CD132480068C82818D930480068B0F528
:10436000FA7F13D21F48007801280FD02148007827
:1043700001280BD01C48007807F022F80546294692
:104380002348006806F0D2FE23490860074847E04A
:10439000B481214200802142402C0140000020C213
:1043A000000020421A000020E40000203F0000200E
:1043B00040000020E0000020000020C1000020415B
:1043C000E2000020D8000020DA000020DC000020FD
:1043D0000020CB460000A0C10000A041DE0000206C
:1043E000580000201700002019000020D4000020F1
:1043F000CC0000201800002015000020160000202E
:104400005C0000200000C842D000002000005C4298
:10441000C80000200000DC42C0000020380000205E
:10442000007801281AD1FE480068C82816D2FD4835
:104430000078012812D0FC48007801280ED0FB48F3
:10444000007806F0BDFF0646F948006880F0004598
:104450003146284606F06AFEF6490860F6480078BC
:1044600001281BD1EE480068B0F5E17F16D2ED4877
:104470000078012812D0EC48007801280ED0EB48D3
:10448000007806F09DFF0646E948006880F0004588
:104490003146284606F04AFEE649086004EB090169
:1044A000484206F075FFE5490860E548006806F0F7
:1044B000A3FD0746E34AE44B06F08EFA054605F0F5
:1044C000AFFFDF490860DD48006806F095FD05464E
:1044D000DC4ADE4B06F080FA07468846D84800687A
:1044E00006F08AFD82463A46434605F0CBFFCDE909
:1044F000000105F095FFD249086008460168D448DC
:10450000006806F0A5FDD2490860CA480168D04895
:10451000006806F09DFDCE490860CE49CC48006891
:1045200007F062F802D2CB48C9490860CA49C848B6
:10453000006806F059FF02D2C748C5490860C7485D
:104540000168C348006806F083FF0746C44906F0C7
:10455000EDFD0546BA48006880F00048C148016892
:10456000404606F075FF0746BD4906F0DFFD0646EA
:10457000294607F075F8BC490860BC480168BC488A
:104580000068FFF735FD012803D0BA4800780128FC
:1045900002D10020AE490860B348006806F0BCFEB6
:1045A000BDE8FC9F2DE9FC5F04460D460021204636
:1045B00007F04BF801902946002007F051F80090D1
:1045C000AD480168009806F043FF8246A44906F012
:1045D000ADFD8046A948006880F0004BA0495846D0
:1045E00006F0A4FD8246019906F032FF814641465D
:1045F00007F036F8074606F08FFE06463046BDE85F
:10460000FC9F70B53220FEF73FFA0546012D07D119
:104610009848007808B9012000E00020954908700A
:10462000FEF7A1FA0446012C07D19548007808B995
:10463000012000E000209249087070BD2DE9F04F84
:1046400087B083468A46584606F05FF900228D4BB4
:10465000CDE9000106F0C0F9064600228A4B05F0BC
:10466000CDFF80460022894B05F0C8FF044600229A
:10467000874B05F0C3FFCDE9020105F0D1FE05909F
:10468000059806F0B9FC8046824A834B06F0A4F9EF
:1046900006460022814B06F09FF9044605F0C0FE55
:1046A0007F490860504606F030F90022754BCDE98D
:1046B000000106F091F980460022734B05F09EFF41
:1046C00006460022714B05F099FF0022704BCDE9A0
:1046D000020105F093FF044605F0A2FE0490049841
:1046E00006F08AFC06466B4A6B4B06F075F90446E9
:1046F00000226A4B06F070F9804605F091FE694988
:10470000086007B0BDE8F08F2DE9F04F8DB080460E
:1047100004F07BFA64490860B8F1010F1BD104F082
:104720005CF962480068524908606149B1F90000CB
:1047300006F02EFE5F4908605D49B1F9040006F0FD
:1047400027FE5D4908605D49B1F9040006F020FECE
:104750005B49086086E14421D020FFF7D6F8834604
:104760004321D020FFF7D1F80BEB0020099006F091
:104770000FFE04464621D020FFF7C7F883464521A7
:10478000D020FFF7C2F80BEB0020099006F000FEE6
:1047900007464821D020FFF7B8F883464721D020AC
:1047A000FFF7B3F80BEB0020099006F0F1FD064689
:1047B0003C21D020FFF7A9F883463B21D020FFF70A
:1047C000A4F80BEB0020099006F0E2FD82463E21A2
:1047D000D020FFF79AF883463D21D020FFF795F8C7
:1047E0000BEB0020099006F0D3FD81464021D0203C
:1047F000FFF78BF883463F21D020FFF786F80BEBBD
:104800000020099006F0C4FD05464FF08E41204679
:1048100006F0EAFE59D24FF08F41204652E00000E8
:104820003800002017000020180000201900002088
:10483000C8000020C000002040000020B800002078
:10484000BC0000209A9999999999E93F9999C93F93
:10485000C400002000401C4600401CC6540000203C
:104860000000C84250000020B400002028000020B2
:104870002C0000201A0000204C00002048000020DE
:104880001B000020000069400000104000003E4076
:1048900000002A40F1D4C853FB21094000C0504019
:1048A000E8000020EC00002024000020B8010020D7
:1048B000A40100203000002034000020AA010020C4
:1048C0004400002006F0CCFE04464FF08E413846EE
:1048D00006F08AFE05D24FF08F41384606F0C0FE42
:1048E00007464FF08E41304606F07EFE05D24FF06F
:1048F0008F41304606F0B4FE06464FF08E415046DA
:1049000006F072FE05D24FF08F41504606F0A8FE29
:1049100082464FF08E41484606F066FE05D24FF0C3
:104920008F41484606F09CFE81464FF08E41284656
:1049300006F05AFE05D24FF08F41284606F090FE51
:10494000054684F00040AC490860284606F054FB58
:10495000CDE90201484606F04FFBCDE90001DDE953
:10496000022304F08BFF0022A44BCDE9040106F0E2
:1049700033F8A34AA34BCDE9060105F03FFECDE98C
:10498000080105F04DFD0B90284606F035FBCDE9FA
:104990000201504606F030FBCDE90001DDE90223BB
:1049A00004F06CFF0022954BCDE9040106F014F8E9
:1049B000934A944BCDE9060105F020FECDE90801AC
:1049C00005F02EFD0A90204606F016FB4FF06632E9
:1049D0008D4BCDE9060105F011FECDE9080105F08A
:1049E0001FFD0446384606F007FB4FF06632864B43
:1049F000CDE9060105F002FECDE9080105F010FD44
:104A0000074682480078022810D121460B9800F012
:104A1000CDFC80F000407E49086039460A9800F0DD
:104A200005FE80F000407B49086013E0774800787D
:104A300003280FD121460B9800F0CFFD80F00040F5
:104A40007349086039460A9800F044FF80F000403E
:104A5000704908606E4800686F4908606F480660DA
:104A60006F4805600DB0BDE8F08F2DE9F0416D484D
:104A7000006800287ED14FF480506B4908606B4875
:104A8000007808B9012000E00020684908705F48FC
:104A90000078FFF739FE0220FEF747FD444204206C
:104AA000FEF743FD454229462046FFF7C7FD604813
:104AB000007801280BD15F480078401CC0B25D49E6
:104AC00008700A2803D10020087059490870574817
:104AD0000078012822D1FEF700FB574908605748AB
:104AE0000068401C554908605548006852490968EB
:104AF0000844534908605148006864280BD10846AF
:104B00000068642190FBF1F04E49086000204C4998
:104B100008604A4908600020BDE8F081FEF766FBA6
:104B20004948007828B94948007810B96420FDF751
:104B30007DFF45480078012803D0444800780128CB
:104B400002D10020FDF772FFFFF75BFD2A480168E4
:104B500031480068FFF726FD804629462046FFF7CA
:104B6000B9FB07462D480068FFF75DFB064608EBDA
:104B7000070000E03EE030443549086008EB0700DC
:104B8000801B34490860344A514231480068FFF7BD
:104B900041FB2F490860304A51422E480068FFF718
:104BA00039FB2C4908602B4622461B4801681C48EB
:104BB0000068FFF7CAFA10B10120284908702A4698
:104BC000214615480068FFF785FA10B100202349F7
:104BD000087029462046FFF731FA1A4801680E4846
:104BE0000068FFF705FA28B91A48016818480068F4
:104BF000FFF7CBF900208FE73000002000806640EF
:104C0000F1D4C853FB2109406666304014000020EF
:104C1000B8010020B40100202C0000203400002046
:104C2000440000203001214214040140B000002063
:104C30003D0000203C000020A4000020A80000202F
:104C4000AC000020280000203F0000204000002091
:104C50001C000020200000200CE5FFFF1A000020AF
:104C600038B5FE480078012805D1FDA2002108468C
:104C7000FEF703F912E0F9480078022805D1F9A2FD
:104C800000210846FEF7F9F808E0F4480078032808
:104C900004D1F6A200210846FEF7EFF8F4480078A8
:104CA000012805D1F3A200214620FEF7E6F80EE028
:104CB000F2480078012805D1F1A200214620FEF734
:104CC000DCF804E0F0A200214620FEF7D6F8F0A2BE
:104CD0000A210020FEF7D1F80021EF48006806F015
:104CE00083FB04D2EDA20A213020FEF7C6F8002192
:104CF000E948006806F078FC04D8E9A20A213020CF
:104D0000FEF7BBF8E448006806F006FB0546FFF72F
:104D100035F904460C20032322460A21009038204E
:104D2000FEF761F8DFA214210020FEF7A6F80021AB
:104D3000DE48006806F058FB04D2D8A214212A20CD
:104D4000FEF79BF80021D948006806F04DFC04D816
:104D5000D3A214212A20FEF790F8D448006806F068
:104D6000DBFA0546FFF70AF904460C200423224625
:104D7000142100903220FEF736F80C200090CC4829
:104D8000008882B2052314215220FEF72CF8C9A214
:104D900014217220FEF771F8C7A21E210020FEF731
:104DA0006CF8C6480068002811DABCA21E21102049
:104DB000FEF763F8C1480068FFF7E0F804460C20EE
:104DC000032322461E2100901A20FEF70CF8BB4850
:104DD0000068002811DBB2A21E211020FEF74DF85A
:104DE000B6480068FFF7CAF804460C2003232246A1
:104DF0001E2100901A20FDF7F6FF0021B048006840
:104E000006F0F2FA04D2A5A21E213C20FEF735F8E6
:104E10000021AB48006806F0E7FB04D8A0A21E21E1
:104E20003C20FEF72AF8A648006806F075FA054609
:104E3000FFF7A4F804460C20042322461E2100900C
:104E40004420FDF7D0FF9FA21E216020FEF715F839
:104E50009EA228210020FEF710F89D480068002837
:104E600011DA8EA228211020FEF707F89848006872
:104E7000FFF784F804460C200323224628210090E3
:104E80001A20FDF7B0FF92480068002811DB84A2C9
:104E900028211020FDF7F1FF8D480068FFF76EF81C
:104EA00004460C2003232246282100901A20FDF7F7
:104EB0009AFF00218748006806F096FA04D277A28C
:104EC00028213C20FDF7D9FF00218248006806F028
:104ED0008BFB04D872A228213C20FDF7CEFF7D4831
:104EE000006806F019FA0546FFF748F804460C205A
:104EF00004232246282100904420FDF774FF71A26C
:104F000028216020FDF7B9FF73A232210020FDF7B0
:104F1000B4FF72A232211E20FDF7AFFF6EA2322134
:104F20003620FDF7AAFF6E480068642190FBF1F47B
:104F30000C2002232246322100901320FDF753FF5C
:104F400067480068642190FBF1F201FB12040C2019
:104F500002232246322100902A20FDF744FF6148B7
:104F6000007820B160A232215520FDF786FF5D4810
:104F7000007820B95DA232215520FDF77EFFFDF7B4
:104F800052FE38BD2DE9F04F87B055480068A0F2B9
:104F900056404000032190FBF1FABAF1000F01DA0C
:104FA0004FF0000ABAF1640F01DD4FF0640A49487E
:104FB000006806F021F805464D4A4E4B05F00CFD01
:104FC000074605F073FC8146B9F1000F01DAC9F11B
:104FD00000093B48006806F00FF80746444A454B75
:104FE00005F0FAFC054605F061FC0446002C00DAE9
:104FF00064424148007808B9012000E000203E49A1
:1050000008703E480078012826D13D48006806F027
:1050100083F905463B48006806F07EF906463A48A3
:10502000006806F079F907463848006806F074F918
:1050300080463748006806F06FF9834635480068B7
:1050400006F06AF906900020CDE90250049043462C
:105050005A46CDE900765FE067E0000014000020CA
:10506000444D50004B616C6D616E00004320460062
:105070003F000020466F6C6C6F77000040000020FE
:1050800041766F69642000004E6F726D616C0000A4
:10509000416E676C650000002C0000202D000000B0
:1050A0002B0000004779726F78000000300000206C
:1050B000380000206D6D00004C0000001C00002036
:1050C000E80000206D6D2F7300000000520000000A
:1050D00020000020EC000020560000002E00000000
:1050E000280000201A0000204F4646004F4E2000A6
:1050F0009A9999999999F13FF00000203E0000207B
:105100005C000020580000205400002050000020C7
:105110004C00002048000020059034A0069903F0C0
:105120009BFE00203949087024E03948007860B9B6
:105130003848006806F0F0F8054653464A462146CE
:10514000009035A003F088FE14E03748006806F0B0
:10515000E3F805463548006806F0DEF806463448B0
:10516000006806F0D9F807462B463246394631A08A
:1051700003F072FE07B0BDE8F08F2DE9F041314831
:10518000006806F005F907462F4905F0CFFF0546F0
:1051900001212048006800F06DF82C4800680A21C1
:1051A000B0FBF1F8404606F00BF90746022100F08B
:1051B00061F80321284600F05DF8032000F0A9F80B
:1051C000064600240DE000BF2148008800F04000A2
:1051D0000028F9D01F48005D1D49091D0880601C8A
:1051E000C4B2B442EFDBBDE8F08100007B4325642C
:1051F0003A25643A25643A25643A25643A25643AA6
:1052000025643A25643A25647D2400003E00002090
:10521000F00000202C0000207B4125643A25643AF0
:1052200025643A25647D2400BC010020B4010020DF
:10523000B80100207B4225643A25643A25647D2428
:1052400000000000280000200000C84238000020B4
:10525000003801401C06002030B503461C788C54F1
:105260005D78541C0D559D78941C0D55DD78D41C2B
:105270000D5530BD13B50C460A2C00DC04B91CBD1D
:105280000B2C43D2DFE804F042060C12181E242A2D
:1052900030363C00012244496846FFF7DDFF35E027
:1052A000052241496846FFF7D7FF2FE009223E4912
:1052B0006846FFF7D1FF29E00D223B496846FFF71A
:1052C000CBFF23E0112238496846FFF7C5FF1DE0F8
:1052D000152235496846FFF7BFFF17E0192232490A
:1052E0006846FFF7B9FF11E01D222F496846FFF716
:1052F000B3FF0BE021222C496846FFF7ADFF05E024
:10530000252229496846FFF7A7FF00BF00BF00BF5D
:10531000B5E701460A2900DC09B9002070472420BE
:10532000214A10700B293CD2DFE801F03B060B103C
:10533000151A1F24292F350005201B4A50710620FD
:10534000ECE70920184A50720A20E7E70D20164AB8
:1053500050730E20E2E71120134A50741220DDE74B
:105360001520114A50751620D8E719200E4A50769C
:105370001A20D3E71D200C4A50771E20CEE72120AB
:10538000094A82F821002220C8E72520064A82F82F
:1053900025002620C2E72920034A82F829002A2076
:1053A000BCE70020BAE700001C0600202DE9F05FF2
:1053B00005460C46FD4EFE4F4FF07C584FF001095C
:1053C000FC480168204606F04BF98346FA4801681C
:1053D000584606F03DF88246F8480168504605F008
:1053E00037FEF6490860F6484168304606F038F95D
:1053F0008246F3488168504606F032F9F149086068
:10540000EF48C06880F000404860ED48C06880F018
:10541000004088600846C7600868E749096806F0E8
:1054200017F88246E6480168504605F011FEE44947
:105430000860E4494868E049096806F009F88246CE
:10544000DF484168504605F003FEDD494860DD490C
:105450008868D949096805F0FBFF8246D848816809
:10546000504605F0F5FDD6498860D649C868D2494E
:10547000096805F0EDFF8246D148C168504605F045
:10548000E7FDCF49C860CD480168284606F0E8F836
:10549000CD490860484605F093FF8246C848016838
:1054A000504605F0D5FFC9490860484605F088FF19
:1054B0008246C3488168504605F0CAFFC449086067
:1054C000484605F07DFF8346C0480168584605F010
:1054D000BFFF8246414605F0BBFDBE490860084655
:1054E0000168BA48006805F021FEBB490860B94868
:1054F0000168B748006805F019FEB8490860B3486C
:105500000068B7490860484605F05AFF8246AC4833
:105510004168504605F09CFFB2490860B0480168F8
:10552000AD48006805F094FF8246A54801685046E2
:1055300006F08BF8A2490860AA480168A6480068EE
:1055400005F086FF82469E484168504606F07DF889
:105550009B494860A2480168A048006805F078FFB0
:10556000824697488168504606F06FF894498860F3
:105570009C4801689948006805F06AFF8246904897
:10558000C168504606F061F88D49C8608E480168D0
:105590009148006805F05CFF8246884801685046E3
:1055A00005F056FD85490860874801688B4800680A
:1055B00005F04EFF82467F480168504605F048FDE1
:1055C0007C49086008460168204606F049F886498B
:1055D00008607A480068BDE8F09F2DE9F05F054655
:1055E0000C46824E74480168204605F031FF834620
:1055F0007F480168584605F02BFD804631464FF044
:105600007E5006F02DF88246414605F021FF074600
:105610003146284605F01CFF8146394605F018FD45
:105620007349086008460068BDE8F09F2DE9F05F07
:1056300005460C465D4E5E4F4FF07C584FF0010919
:105640006C480168204606F00BF883465A4801680A
:10565000584605F0FDFE824667480168504605F051
:10566000F7FC6549086065484168304605F0F8FF79
:10567000824662488168504605F0F2FF6049086042
:105680005E48C06880F0004048605C48C06880F0B8
:10569000004088600846C76008684749096805F007
:1056A000D7FE824655480168504605F0D1FC534963
:1056B0000860534948684049096805F0C9FE8246B8
:1056C0004E484168504605F0C3FC4C4948604C497F
:1056D00088683949096805F0BBFE824647488168F9
:1056E000504605F0B5FC454988604549C8683249CF
:1056F000096805F0ADFE82464048C168504605F095
:10570000A7FC3E49C8603C480168284605F0A8FF50
:105710003C490860484605F053FE82463748016818
:10572000504605F095FE38490860484605F048FEA9
:10573000824632488168504605F08AFE3349086047
:10574000484605F03DFE83462F480168584605F05F
:105750007FFE8246414605F07BFC2D4908600846E5
:1057600001682948006805F0E1FC2A4908602848DA
:1057700001682648006805F0D9FC274908602248DE
:10578000006826490860484605F01AFE82461B4814
:105790004168504605F05CFE214908601F480168D9
:1057A0001C48006805F054FE82463BE06F12833AC5
:1057B000A69B443B00010020F4000020FC000020D8
:1057C00024010020480600200401002008010020D8
:1057D0000C010020100100201401002018010020FD
:1057E0001C01002020010020F80000200AD7A33C63
:1057F00034010020400100203C0100206401002011
:105800005806002044010020480100204C010020DF
:105810005001002054010020580100205C010020AC
:105820006001002040480168504605F00EFF3E49E7
:1058300008603E4801683E48006805F009FE82465F
:1058400039484168504605F000FF374948603948FB
:1058500001683948006805F0FBFD824632488168DE
:10586000504605F0F2FE3049886030480168324801
:10587000006805F0EDFD82462B48C168504605F0F2
:10588000E4FE2949C8602D4801682948006805F0F0
:10589000DFFD82462A480168504605F0D9FB2849B9
:1058A0000860264801682448006805F0D1FD82465A
:1058B00024480168504605F0CBFB224908600846A1
:1058C0000168204605F0CCFE1F4908601C480068AE
:1058D000BDE8F09F2DE9F05F05460C461B4E1C48C5
:1058E0000168204605F0B4FD83461A480168584611
:1058F00005F0AEFB804631464FF07E5005F0B0FE1D
:105900008246414605F0A4FD07463146284605F08B
:105910009FFD8146394605F09BFB0E49086008460D
:105920000068BDE8F09F00006401002060010020D5
:10593000540100205C010020580100204401002097
:105940003C01002040010020380100200AD7A33C80
:10595000F40000207401002038B50446FB4890F89C
:105960002400C0B114B10220009001E0002000909A
:10597000F64A1268D17BF54A526810786B460122CC
:10598000FDF724FF10B14FF0FF3038BD9DF8001037
:10599000EE48417423E0ED48807A10B94FF0FF30B3
:1059A000F3E724B1E948407C08B10020EDE714B1E9
:1059B0000120009001E000200090E44A1268D17BB1
:1059C000E24A526810786B460122FDF7FFFE10B1E3
:1059D0004FF0FF30D9E79DF80010DC4841740020FB
:1059E000D3E738B5002419E0D8480068C07AA0424F
:1059F00004D0D6480068407DA04200D10CE0D349D5
:105A0000496808786B4601222146FDF743FF10B133
:105A10004FF0FF3038BD00BF601CC4B2CB484068B7
:105A20000079A042E0DC0020F4E770B504460D46A2
:105A3000C6480068C07AA04204D0C4480068407DCF
:105A4000A04202D14FF0FF3070BDC04840680079DD
:105A5000A04202DC4FF0FF30F6E7BC494968087805
:105A60002B4601222146FDF715FFEDE738B5044628
:105A7000B64890F82300A04201D1002038BD14B1EF
:105A80003020009001E000200090B048807C20B1E0
:105A90009DF8000040F002000090AC4890F8220011
:105AA00020B19DF8000040F080000090A74A1268E5
:105AB000117DA64A526810786B460122FDF786FEDA
:105AC00010B14FF0FF30D9E7A04880F82340002004
:105AD000D4E738B5044604F0700010B101200090FE
